:0400000051EF00F0CC
:0C000800FACF12F0FBCF13F0D8ED06F099
:10001800D8CF01F0E8CF02F0E0CF03F0FACF04F038
:10002800FBCF05F0E9CF06F0EACF07F0E1CF08F003
:10003800E2CF09F0D9CF0AF0DACF0BF0F3CF0CF00A
:10004800F4CF0DF0F6CF0EF0F7CF0FF0F8CF10F099
:10005800F5CF11F011C0F5FF10C0F8FF0FC0F7FF82
:100068000EC0F6FF0DC0F4FF0CC0F3FF0BC0DAFFA3
:100078000AC0D9FF09C0E2FF08C0E1FF07C0EAFFD4
:1000880006C0E9FF05C0FBFF04C0FAFF03C0E0FF9C
:0E00980002C0E8FF01C0D8FF10001FEF08F003
:1008000001000A006400E803102748656C6C6F2043
:10081000576F726C64200A4D6F74686572667563F9
:100820006B65722000636E743A2025303669200AA9
:1008300020256920646567432C202569000000019C
:10084000000E000100016B6F0001640E00016A6F71
:10085000A6D1000100017551250AD8B40CD060C0A2
:10086000D9FF61C0DAFF000175C0DFFF00010001A0
:10087000604B612B94D1000E00010001746F000EDB
:100880000001736F2E6E000E00010001726F2E507A
:1008900007D000010001728500010001624B632B4B
:1008A000000162C0F6FF000163C0F7FF0800F550C9
:1008B000300AD8B4EED7000162C0F6FF000163C071
:1008C000F7FF0800F5CF20F03AEC08F0D8A03DD0B3
:1008D000000E00010001746F000E0001736F73C001
:1008E00020F074C021F0000E236E0A0E226E02EC7E
:1008F00008F020C073F021C074F0000162C0F6FF60
:10090000000163C0F7FF0800F5CF2EF0D00E2E24B3
:100910002F6E306AFF0E30222F5000010001732726
:10092000305000010001742300010001624B632B71
:10093000000162C0F6FF000163C0F7FF0800F5CFB9
:1009400020F03AEC08F0D8B0CAD7000162C0F6FF38
:10095000000163C0F7FF00010001624B632B080038
:100960000001F5CF75F000017551000AD8B428D107
:10097000640AD8B403D00D0AD8A411D16AC0D9FF33
:100980006BC0DAFF0001DECF6DF00001DDCF6EF04D
:10099000020E000100016A27000E00016B23000116
:1009A00000016EAF0BD0030E0001000172130001B5
:1009B00000016D6D00016E1FD8B06E2B2E6E010E02
:1009C00000010001756F2E50000100017551050AEC
:1009D000D8B41ED0000100017551020D000EF324A1
:1009E000F66E080EF420F76E0900F5CF2EF0090020
:1009F000F5CF2FF02E50000100016D5D2F5000014A
:100A000000016E59D8A004D000010001752BDCD77D
:100A10000001000174517311D8B40BD00001000122
:100A20007251030BD8B405D0000100017307D8A0A0
:100A30007407800E0001000175BF7F0E2E6E00014D
:100A40000001735100010001755D00010001745146
:100A5000800A2E58D8B00ED0000100017551000157
:100A60000001735F000E000175BFFF0E0001000161
:100A7000745B07D0000E00010001746F000E0001CE
:100A8000736F0001000172A526D0000100017251B0
:100A9000030BD8B40AD060C0D9FF61C0DAFF2D0EB5
:100AA000DF6E00010001604B612B000100017451F9
:100AB0007311D8B43AD060C0D9FF61C0DAFF300EEC
:100AC000DF6E00010001604B612B00010001730724
:100AD000D8A07407EBD70001000174517311D8B48A
:100AE00014D060C0D9FF61C0DAFF200EDF6E0001B4
:100AF0000001604B612B000100017307D8A074074F
:100B0000000174517311D8A4ECD700010001725197
:100B1000030BD8B40AD060C0D9FF61C0DAFF2D0E34
:100B2000DF6E00010001604B612B75C06CF030D0AE
:100B3000000100016C51020D000EF324F66E080E48
:100B4000F420F76E0900F5CF22F00A00F5CF23F06C
:100B50006DC020F06EC021F070EC07F020C028F0CE
:100B600021C029F0000E2B6E0A0E2A6EC0EC07F091
:100B70002850300F00010001756F60C0D9FF61C0BF
:100B8000DAFF000175C0DFFF00010001604B612B3F
:100B9000000100016C0700016C29D8A4C9D700012D
:100BA00062C0F6FF000163C0F7FF00010001624B65
:100BB000632B08000001F5CF75F00001756749D679
:100BC00060C0D9FF61C0DAFF000EDF6E1200A3EC37
:100BD00008F09EEC08F04CEC08F0000E246E000EBD
:100BE000256E000E266E000E276E40EC07F0050EF7
:100BF000C26E0D0EC16E929680967AEC08F0080EC9
:100C0000256E0A0E246E92EC06F00001766F000E3F
:100C1000216E000176510001776F0C0E226E0001EB
:100C20007751E3EC07F0270E000100019B6F100ED7
:100C300000019A6F20EEA0F010EE78F0210EDECFCA
:100C4000E6FFE82EFCD78188000E000100019D6FB1
:100C5000000E00019C6F000100019D51800A7D0F74
:100C6000FF0ED8B49C5DD8B005D0000100019C4BAC
:100C70009D2BF1D78198000E000100019F6F000E9F
:100C800000019E6F000100019F51800A7D0FFF0E41
:100C9000D8B49E5DD8B005D0000100019E4B9F2BBB
:100CA000F1D70001766F070E216E000176510EEC30
:100CB00007F0215000010001996FC282C2B2FED735
:100CC0007AEC08F00001000E00010001616F0001E4
:100CD000780E0001606F080E00010001636F250EA1
:100CE0000001626F9AC064F09BC065F000010001D2
:100CF00099C066F000010001676B0001C4CF68F085
:100D000000010001696B1FEC04F00001000E256E6C
:100D10000001780E246E92EC06F0000100019A4B5F
:100D20009B2B91D733D02450F66EE96E070EEA6EF6
:100D30002550EA6403D0EA6EEF5003D0F76E080046
:100D4000F5500A0AD8A40BD0266E000E216E26504C
:100D5000276EC00E226E2750E3EC07F015D0266EEA
:100D6000400E216E26502450F66EE96E070EEA6E94
:100D70002550EA6403D0EA6EEF5003D0F76E080006
:100D8000F550226EE3EC07F0244A252A2450F66E33
:100D9000E96E070EEA6E2550EA6403D0EA6EEF5062
:100DA00003D0F76E0800F5500009D8B41200BBD785
:100DB0000600E9CF14F0EACF15F0E1CF16F0E2CF4C
:100DC00017F0D9CF18F0DACF19F0F3CF1AF0F4CF2B
:100DD0001BF0F6CF1CF0F7CF1DF0F8CF1EF0F5CFCB
:100DE0001FF01FC0F5FF1EC0F8FF1DC0F7FF1CC09D
:100DF000F6FF1BC0F4FF1AC0F3FF19C0DAFF18C0DA
:100E0000D9FF17C0E2FF16C0E1FF15C0EAFF14C00A
:100E1000E9FF13C0FBFF12C0FAFF110098EC08F0C5
:100E2000C580C5B0FED798EC08F021502124900968
:100E3000206E9BEC07F098EC08F0236E010E206EFC
:100E400023509BEC07F098EC08F0C582C5B2FED7A2
:100E500098EC08F0215021249109206E9BEC07F0BA
:100E600098EC08F05EEC08F0246EC58AC588C5B819
:100E7000FED7C584C5B4FED724C021F0226A120073
:100E8000000E2C6E000E2B6E85EC08F027502410FF
:100E900025102610D8A404D0000E2A6E390E03D0D7
:100EA000000E2A6E310E296E000E2C6E000E2B6E77
:100EB000080E2B5C000E2C58D8B011D0286E000EF6
:100EC000216E28502B502924D96E2C502A20DA6EFE
:100ED000DF50226EE3EC07F02B4A2C2AE9D71200F0
:100EE000000E266E000E256E23502210D8B41ED0A0
:100EF000246E010E276E245004D0D890223623365B
:100F0000272A23AEFAD7D890253626362250205CE1
:100F100023502158D8A005D02250205E2350215ABA
:100F20002580D89023322232272EEDD725C020F0FD
:100F300026C021F0120020C0C9FFC6BE20D0C65076
:100F40000F0B080AD8B40CD0C6500F0B0B0AD8B43C
:100F500007D0C6889EA6FED7C7B411D0C7500FD001
:100F6000C6500F0B080AD8B405D0C6500F0B0B0A99
:100F7000D8A405D0C7B0FED798EC08F0C550120031
:100F80002B502A10D8B41AD02C6E010E2D6E2C5076
:100F900004D0D8902A362B362D2A2BAEFAD72A50D9
:100FA000285C2B502958D8A004D02A50285E2B50FA
:100FB000295AD8902B322A322D2EF1D728C028F06A
:100FC00029C029F0120098EC08F0C580C5B0FED702
:100FD00098EC08F0236E7C0E206E23509BEC07F0FB
:100FE00098EC08F021C020F09BEC07F098EC08F09A
:100FF00022C020F09BEC07F098EC08F0C584C5A453
:101000001200FDD720502202F3CF24F0F4CF25F0B8
:1010100020502302F3CFF4FFF36AF3502426F45058
:10102000252221502202F3CFF4FFF36AF350242645
:10103000F450252224C020F025C021F0120000EE3B
:10104000A0F0210EEE6AE806FDE1200EF66E110E0C
:10105000F76E000EF86E00EE31F010EE10F00900A1
:10106000F5CFEEFFE550E150FAE1000EF86E000119
:10107000E7EF05F0216E000E226E21503A0E20603F
:1010800007D02F0E206404D0216E010E226E215055
:1010900022C021F0213012008194000E216E000E3A
:1010A000206E2150800A780FFF0ED8B4205CD8B093
:1010B00003D0204A212AF5D781841200C6500F0B95
:1010C000080AD8B404D0C6500F0B0B0AD8B4C58692
:1010D000C7A0FED7C95012003F0EC716000EC66E3D
:1010E000000EC56E2050C6122150C7129382938005
:1010F000C68A1200246E000E216E2450256E010E49
:10110000226E2550E3EC07F01200226E080E206ECE
:101110002250236E000E216E23506CEC08F012005A
:1011200038391474546F0C0138391479506C0F012C
:10113000C5501F0BD8B4C7B4FBD712000F0EC11295
:08114000939893941200120031
:020000040020DA
:08000000FFFFFFFFFFFFFFFF00
:020000040030CA
:0E000000210B1F1FFF8381FF0FC00FE00F4079
:00000001FF
