:020000040000fa
:080000000002040000000000f2
:020000040000fa
:10000800ea020000ba020000c0020000c6020000b6
:10001800cc020000ea020000ea020000ea02000046
:10002800ea020000ea020000ea020000940200006e
:10003800ea020000ea020000ea020000ea02000008
:10004800ea020000ea020000ea020000ea020000f8
:10005800ea020000ea020000ea020000ea020000e8
:10006800ea020000ea020000ea020000ea020000d8
:10007800ea020000ea020000ea020000ea020000c8
:10008800ea020000ea020000ea020000ea020000b8
:10009800ea020000ea020000ea020000ea020000a8
:1000a800ea020000ea020000ea020000ea02000098
:1000b800ea020000ea020000ea020000ea02000088
:1000c800ea020000ea020000ea020000ea02000078
:1000d800ea020000ea020000ea020000ea02000068
:1000e800ea020000ea020000ea020000ea02000058
:1000f800ea020000ea020000ea020000ea02000048
:10010800ea020000ea020000ea020000ea02000037
:10011800ea020000ea020000ea020000ea02000027
:10012800ea020000ea020000ea020000ea02000017
:10013800ea020000ea020000ea020000ea02000007
:10014800ea020000ea020000ea020000ea020000f7
:10015800ea020000ea020000ea020000ea020000e7
:10016800ea020000ea020000ea020000ea020000d7
:10017800ea020000ea020000ea020000ea020000c7
:10018800ea020000ea020000ea020000ea020000b7
:10019800ea020000ea020000ea020000ea020000a7
:1001a800ea020000ea020000ea020000ea02000097
:1001b800ea020000ea020000ea020000ea02000087
:1001c800ea020000ea020000ea020000ea02000077
:1001d800ea020000ea020000ea020000ea02000067
:1001e800ea020000ea020000ea020000ea02000057
:0801f800ea020000ea02000027
:020000040000fa
:10020800ea020000d2020000d8020000de0200006c
:10021800e4020000ea020000ea020000ea0200002c
:10022800ea020000ea020000ea020000940200006c
:10023800ea020000ea020000ea020000ea02000006
:10024800ea020000ea020000ea020000ea020000f6
:10025800ea020000ea020000ea020000ea020000e6
:10026800ea020000ea020000ea020000ea020000d6
:10027800ea020000ea020000ea020000ea020000c6
:10028800ea020000ea020000ea020000ea020000b6
:10029800ea020000ea020000ea020000ea020000a6
:1002a800ea020000ea020000ea020000ea02000096
:1002b800ea020000ea020000ea020000ea02000086
:1002c800ea020000ea020000ea020000ea02000076
:1002d800ea020000ea020000ea020000ea02000066
:1002e800ea020000ea020000ea020000ea02000056
:1002f800ea020000ea020000ea020000ea02000046
:10030800ea020000ea020000ea020000ea02000035
:10031800ea020000ea020000ea020000ea02000025
:10032800ea020000ea020000ea020000ea02000015
:10033800ea020000ea020000ea020000ea02000005
:10034800ea020000ea020000ea020000ea020000f5
:10035800ea020000ea020000ea020000ea020000e5
:10036800ea020000ea020000ea020000ea020000d5
:10037800ea020000ea020000ea020000ea020000c5
:10038800ea020000ea020000ea020000ea020000b5
:10039800ea020000ea020000ea020000ea020000a5
:1003a800ea020000ea020000ea020000ea02000095
:1003b800ea020000ea020000ea020000ea02000085
:1003c800ea020000ea020000ea020000ea02000075
:1003d800ea020000ea020000ea020000ea02000065
:1003e800ea020000ea020000ea020000ea02000055
:0803f800ea020000ea02000025
:020000040000fa
:10040000af8320000e7f24000e0188000000000052
:1004100000012000200288000c000700a05a2000e4
:100420000100200011000700000020000000e00093
:10043000020032000000020000000000a0040200e0
:10044000000000000040da000000fe004440a90067
:10045000200020000000e000030032000000200027
:10046000a00188004440a800000006009101880017
:10047000800078000000eb0015003700e2804000ab
:1004800032a0b4009101ba00e280400032a0b40072
:100490009102ba00e280400032a0b4000002eb00fa
:1004a000472bde00f507b200602ce10004003a00a3
:1004b0000059eb008301e900fdff3e000400370016
:1004c0006128e100010032000082eb000400070017
:1004d0001101ba000200e000e8ff3a000000060047
:1004e0003159ba008301e9000c0032002159ba00e9
:1004f0008301e900080032000400e00003003a0034
:10050000e280400032a0b400f5ff370011d9ba00f4
:100510008301e900faff3a008100e800e180400031
:1005200032a0b400000006003600f800809fbe0034
:10053000829fbe00849fbe00869fbe003400f800ec
:1005400000002000a00188000000fa008460a900db
:10055000700007000080fa003400f9004f03be006d
:100560004f02be004f01be004f00be003600f90032
:10057000004006000000fa008020a900ffff3700bd
:100580000000fa008060a900ffff37000000fa00b9
:100590008040a900ffff37000000fa008080a9001a
:1005a000ffff37000000fa008020a900ffff37009e
:1005b0000000fa008060a900ffff37000000fa0089
:1005c0008040a900ffff37000000fa008080a900ea
:1005d000ffff37000000fa00ffff37006022b8007d
:1005e000060220000000d0008180d2000482d200e8
:1005f0008582d2000000a0000202520083825a00cd
:10060000030031000202420083824a000000a10080
:100610000603e900f3ff3a0000000600efff0700c1
:080620000400be00000006000a
:020000040000fa
:0406280007000000c7
:020000040000fa
:10062c000000fa0004002f00c416880004c1a900c1
:10063c000481a90004a1a900f4ff2000140888007b
:10064c004431280014427800614262006142620029
:10065c00614262000482fb00610262004c22dd00f8
:10066c0026058000f5ff2e008502630004827200cf
:10067c002405880044312800144278000482fb00d1
:10068c000402d100044278006142620061426200bf
:10069c00614262000482fb00610262004d22dd00b7
:1006ac0026058000f5ff2d00850263000482720090
:1006bc002405880044312800144278000482fb0091
:1006cc004222de0004427800614262006142620014
:1006dc00614262000482fb00610262004e22dd0076
:1006ec0026058000f5ff2b00850263000482720052
:1006fc00240588008460a9009460a80005e1a80086
:10070c000080fa00000006000000fa00848320003c
:10071c00144278008482fb00048020000482420092
:10072c00144278000482fb000482ea007f0262001b
:10073c00c722dd0084832000144278000482fb0071
:10074c00160020000432dd0004824200d41688001a
:10075c0084832000144278000442e8000002fd006b
:10076c0038e8b7000002fd008483200014427800b2
:10077c00e64f5200030036000042eb000400780004
:10078c0038e8b7000080fa00000006000400fa0008
:10079c0020479800ae42900034c6b30084cf52007c
:1007ac000200360034c6b300244798000002eb0068
:1007bc00040f78002f0037001e02780064034200fb
:1007cc002e4290008482fb00a4002000809fbe007b
:1007dc00110009008482d8000002780081027800a0
:1007ec004f00be00044278000482fb00250020006c
:1007fc009e8352006322b9000402780087024200f3
:10080c00748020000482420014427800058020008d
:10081c0085024300844a78002e4290008482fb00bb
:10082c00a4002000809fbe00110009008482d80023
:10083c0080027800010278004f00be00044278006c
:10084c000482fb00250020001e8352006322b900a5
:10085c000402780086024200748020000482420068
:10086c0014427800058020009e824200844a780061
:10087c001e0fe8001e027800e20f5200ceff34007b
:10088c000080fa00000006000400fa0020479800df
:10089c000002eb00040f7800210037001e027800e4
:1008ac00640342002e4290000482fb004422de00ce
:1008bc00044278000482fb00250020009e83520035
:1008cc006322b90004027800870242007480200081
:1008dc000482420014427800058020008502430007
:1008ec00844a78002e4290000482fb006f02620062
:1008fc00250020001e8352006322b90004027800f8
:10090c008602420074802000048242001442780067
:10091c00058020009e824200844a78001e0fe80069
:10092c001e027800e20f5200dcff34000080fa0057
:10093c00000006000c00fa00a10007009c00070054
:10094c004507a9000082eb00641988004227a90022
:10095c006022b800048fbe00110037001e02be00da
:10096c0052002000030020000400be0028ff0700f6
:10097c000002be000402780015002000042add00ed
:10098c0004427800058020009e824200844a780050
:10099c0014002000050020001e0f42005e974a0044
:1009ac001e03be006400200005002000840f5300cd
:1009bc00858f5b00e9ff36006022b800048fbe0013
:1009cc000400370014002000050020001e0f420018
:1009dc005e974a00e4ff2f00050020001e03be00b6
:1009ec00840f5300858f5b00f6ff36002d63a90042
:1009fc00041980000450a0000460a0000470a00042
:100a0c000419880024f0210024198800b400200067
:100a1c004419880021e3a8006022b800048fbe00ae
:100a2c0008003700048020009e0242000042eb00c8
:100a3c00844a780014002000050020001e0f42009c
:100a4c005e974a001e03be006400200005002000d3
:100a5c00840f5300858f5b00f2ff36000042eb00e1
:100a6c00444798002003a9002023a80000000000a0
:100a7c000419800061026200e00f5200fcff32009a
:100a8c0005188000350798003e02900005002000f4
:100a9c0046ce200006abb900060378006020b900f2
:100aac0080037800070343008402780044ce2000c2
:100abc00042ab8000503430086027800f23f2000a8
:100acc00030020000400be00c1fe07000002be00af
:100adc00440798004e029000c5e02f00848242002b
:100aec0054002000811f7800110009008482d80076
:100afc000002780081027800cf0078000402e80040
:100b0c000402d100244f98002e4890001fff0700cc
:100b1c006022b800048fbe000400370014002000cf
:100b2c00050020001e0f42005e974a00e4ff2f00d4
:100b3c00050020001e03be00840f5300858f5b0050
:080b4c00f6ff3600c7ff370079
:020000040000fa
:100b5400000800003800000002000000000000004f
:100b640000000000001f11001f0002001f1d1500df
:100b7400171115001f0704001f1715001d1f15006e
:100b84001d011d00031f15001f1715001f1f050061
:100b94001f1f14001c1f1100111c14001f1f15001f
:100ba400111f0500010000003808000002000000c9
:080bb400000000000000000039
:020000040000fa
:100bbc000000fa009afe07000080fa000000060010
:0c0bcc000000fa000080fa0000000600a3
:020000040000fa
:020000040005f5
:0457f400ffff0000b3
:020000040000fa
:020000040005f5
:0457f800bff70000f7
:020000040000fa
:020000040005f5
:0457fc00ff3e00006c
:00000001FF
