:020000040000FA
:06000000A8EF1AF0120047
:0600080004EF04F01200F9
:060018000CEF04F01200E1
:06080000A8EF1AF012003F
:0608080039EF18F01200A8
:060818001BEF18F01200B6
:06082A000200A2350000EF
:10083000E300000009000000A9320000EC00000005
:0408400001000000B3
:0C084400D9CFE6FFE1CFD9FFFC0EDBCFDF
:1008500060F0FD0EDBCF61F0FE0EDBCF62F0F90E33
:10086000DBCF63F0FA0EDBCF64F0FB0EDBCF65F07D
:10087000F60EDBCF66F0F70EDBCF67F0F80EDBCFBE
:1008800068F0F40EDBCF69F0F50EDBCF6AF0000103
:100890006B6B6C6B6D6B6E6B6F6B706B000EE66EE3
:1008A000E66AE66EE66AB4EC0BF0E552E552E55214
:1008B000E552000EE66EE66AE66EE66AD2EC0BF0F2
:1008C000E552E552E552E5521FD8140E6F6E6D9851
:1008D000E552E7CFD9FF12006D860001010EB56F1A
:1008E0006DBAFED70001040EB56F12006A6A1200DD
:1008F00068960001B36BB46B040EB56FB66B68B647
:10090000F7D702D86D981200D9CFE6FFE1CFD9FF13
:10091000020EE12600016B6B6C6B6D6B6E6B6F6B87
:10092000706B6E6A6D8C6D9C6A6ADE6ADD6ADECF02
:1009300014F0DDCF15F0D890155004E6100E145CBD
:10094000000E155832E2DECFE9FFDDCFEAFFD89086
:10095000E936EA36D890E936EA36710EE926000E15
:10096000EA22020EE926000EEA22EE6AED6ADECFE6
:10097000E9FFDDCFEAFFD890E936EA36D890E936CC
:10098000EA36710EE926000EEA22EE6AED6ADECF43
:10099000E9FFDDCFEAFF700EE9260F0EEA22EF6ACB
:1009A000DF2A010E01E3DB2AC2D7DE6ADD6ADECF71
:1009B00014F0DDCF15F0D890155004E6060E145C47
:1009C000000E155814E2DECFE9FFDDCFEAFFD89024
:1009D000E936EA36D890E936EA36000EE926040E02
:1009E000EA22EF6ADF2A010E01E3DB2AE0D7160EC6
:1009F000706E0001B16BB26BB56BB36BB46BB66B61
:100A00000401080E016F800E026F040E036F880E42
:100A1000006F056B880E066F040E076F480E046F9B
:100A2000020EE15C02E2E16AE552E16EE552E7CFD7
:100A3000D9FF120068A803D01AEC18F0689868A0D3
:100A400002D056DF689068A202D06A6A689268BADB
:100A5000689A68AC0CD000016B516C1107E005D0AE
:100A60006CC0FAFF00016B51F96EFADF689C68A652
:100A700009D06C50E840E840E8401F0B0F0B01E143
:100A800002D8689612000001C16B6CCFB7F0B75165
:100A9000FC0BE842E842040DF3CFB8F0F4CFB9F014
:100AA000000EB827040EB923040EB711FC0BE84260
:100AB000E842040DF3CFBAF0F4CFBBF0000EBA2732
:100AC000040EBB23B8C0E9FFB9C0EAFFEF503C0BEE
:100AD000240A0AE0200A05E0300A01E008D008D81C
:100AE00006D055EC0BF003D028EC0BF000D0120030
:100AF000BAC0E9FFBBC0EAFF080EEF6E6D98B8C040
:100B0000E9FFB9C0EAFF020EE926000EEA22EE5024
:100B1000EFCFEAFFE96EEF50600B400A42E0600A57
:100B200034E0200A01E049D0B8C0E9FFB9C0EAFFCB
:100B3000020EE926000EEA22EE50EFCFEAFFE96E40
:100B4000EF50030B020A15E0030A0BE0010A01E073
:100B500019D0B8C0E6FFB9C0E6FF7CD8E552E5522F
:100B600013D0B8C0E6FFB9C0E6FF80DBE552E5521E
:100B70000BD0B8C0E6FFB9C0E6FFD3EC09F0E552F0
:100B8000E55202D014EC0CF01AD000016D516E1138
:100B900007E005D06EC0FAFF00016D51F96EFADF73
:100BA0000ED000016F51701107E005D070C0FAFF40
:100BB00000016F51F96EFADF02D014EC0CF0B8C0EE
:100BC000E9FFB9C0EAFFEE52080EEF6EB8C0E9FFC8
:100BD000B9C0EAFF020EE926000EEA22EE50EFCF7E
:100BE000EAFFE96EEF50800B24E1B8C0E9FFB9C01D
:100BF000EAFF020EE926000EEA22EE50EFCFEAFFEE
:100C0000E96E060EE926000EEA22EF5014E1B8C0A4
:100C1000E9FFB9C0EAFF020EE926000EEA22EE5013
:100C2000EFCFEAFFE96E070EE926000EEA22EF5049
:100C300002E1000E01D0010E000902E0C80E01D051
:100C4000880EE66EB8C0E9FFB9C0EAFFE552E7508A
:100C5000EF6E1200D9CFE6FFE1CFD9FF040EE126F7
:100C6000FD0EDBCFE9FFFE0EDBCFEAFF020EE92629
:100C7000000EEA22EECFDEFFEDCFDDFFDECFE9FF93
:100C8000DDCFEAFF010EE926000EEA22EF50070A47
:100C900001E1E1D20E0A01E1B2D2010A01E19AD2E8
:100CA0000E0A01E19FD0030A64E0060A4BE0020A43
:100CB00032E0010A01E0CFD20001B151E66EBAC0C4
:100CC000E9FFBBC0EAFF020EE926000EEA22EE5061
:100CD000EFCFEAFFE96EE552E750EF6EB2C014F0D5
:100CE000156ABAC0E9FFBBC0EAFF020EE926000E92
:100CF000EA22EE50EFCFEAFFE96E010EE926000E80
:100D0000EA2214C0EFFF020EE66EE66AF4EC0BF086
:100D1000E552E552A1D2DECFE9FFDDCFEAFF020EB8
:100D2000E926000EEA22EF040AE10001B193000E69
:100D3000E66EE66AF4EC0BF0E552E55202D014ECF4
:100D40000CF08AD2DECFE9FFDDCFEAFF020EE92602
:100D5000000EEA22EF040AE10001B183000EE66E04
:100D6000E66AF4EC0BF0E552E55202D014EC0CF01C
:100D700073D2DECFE9FFDDCFEAFF030EE926000ED6
:100D8000EA22EF502CE17F0E146EDECFE9FFDDCFBB
:100D9000EAFF020EE926000EEA22EF50145C1FE380
:100DA000DECFE9FFDDCFEAFF020EE926000EEA22E0
:100DB000EFCFB6F0360EE66E180EE66E000EE66E5B
:100DC000E66AB4EC0BF0E552E552E552E552000E4E
:100DD000E66EE66AF4EC0BF0E552E55202D014EC54
:100DE0000CF03AD2DECFE9FFDDCFEAFF030EE926B1
:100DF000000EEA22EF50040A01E1D6D1010A01E116
:100E0000D3D1060A01E143D1010A3EE0030A01E021
:100E1000CBD160C0BCF061C0BDF062C0BEF060C0AC
:100E2000F6FF61C0F7FF62C0F8FF0800F55000014F
:100E3000BF6FC06BDECFE9FFDDCFEAFF070EE9260B
:100E4000000EEA22EF501FE1DECFE9FFDDCFEAFF1F
:100E5000060EE926000EEA22EFCF14F0BCC0F6FF22
:100E6000BDC0F7FFBEC0F8FF0800F550145C0BE2F0
:100E7000DECFE9FFDDCFEAFF060EE926000EEA220B
:100E8000EF50BF6FC06B93D1DECFE9FFDDCFEAFF3C
:100E9000020EE926000EEA22EFCF14F060C0F6FF42
:100EA00061C0F7FF62C0F8FF110EF626000EF722B0
:100EB000F8220800F550145C04E30001010EC16F34
:100EC00076D163C0BCF064C0BDF065C0BEF0BCC0EC
:100ED000F6FFBDC0F7FFBEC0F8FF030EF626000EFA
:100EE000F722F8220800F550146E156A14C015F0A8
:100EF000146ABCC0F6FFBDC0F7FFBEC0F8FF020E0B
:100F0000F626000EF722F8220800F55000011424FE
:100F1000BF6F000E1520C06F020EDB6A030EDB6A86
:100F2000020EDBCF14F0030EDBCF15F0DECFE9FFAE
:100F3000DDCFEAFF020EE926000EEA22EF500001A3
:100F400015AE02D0D89003D0145C000E155836E2CE
:100F5000BFC014F0C0C015F0166A14500001BC27C1
:100F60001550BD231650BE23BCC0F6FFBDC0F7FF11
:100F7000BEC0F8FF030EF626000EF722F822080086
:100F8000F550146E156A14C015F0146ABCC0F6FF53
:100F9000BDC0F7FFBEC0F8FF020EF626000EF72216
:100FA000F8220800F5501424BF6F000E1520C06F02
:100FB000020EDB2A030E01E3DB2AB2D7DECFE9FF04
:100FC000DDCFEAFF070EE926000EEA22EFCF14F08C
:100FD000BCC0F6FFBDC0F7FFBEC0F8FF030EF6268B
:100FE000000EF722F8220800F550145C32E3DECF41
:100FF000E9FFDDCFEAFF070EE926000EEA22EFCF78
:1010000015F0BCC0F6FFBDC0F7FFBEC0F8FF030E71
:10101000F626000EF722F8220800F550155C36E19E
:10102000DECFE9FFDDCFEAFF060EE926000EEA2259
:10103000EFCF16F0BCC0F6FFBDC0F7FFBEC0F8FF93
:10104000020EF626000EF722F8220800F550165C74
:101050001DE2DECFE9FFDDCFEAFF070EE926000E35
:10106000EA22EF50146E156A14C015F0146ADECF30
:10107000E9FFDDCFEAFF060EE926000EEA22EF5077
:1010800000011424BF6F000E1520C06F90D0DECF7A
:10109000E9FFDDCFEAFF020EE926000EEA22EF505B
:1010A000146E156A000115506A19E8AE02D06A354F
:1010B00004D06951145C6A51155803E3010EC16FE5
:1010C00076D066C0BCF067C0BDF068C0BEF0BCC0E2
:1010D000F6FFBDC0F7FFBEC0F8FF0800F550BF6FB8
:1010E000C06B020EDB6A030EDB6A020EDBCF14F06C
:1010F000030EDBCF15F0DECFE9FFDDCFEAFF020EF6
:10110000E926000EEA22EF50000115AE02D0D89079
:1011100003D0145C000E15581CE2BFC014F0C0C010
:1011200015F0166A14500001BC271550BD23165047
:10113000BE23BCC0F6FFBDC0F7FFBEC0F8FF08006D
:10114000F550BF6FC06B020EDB2A030E01E3DB2AF2
:10115000CCD7DECFE9FFDDCFEAFF070EE926000E90
:10116000EA22EF5020E1DECFE9FFDDCFEAFF060EF5
:10117000E926000EEA22EFCF14F0BCC0F6FFBDC096
:10118000F7FFBEC0F8FF0800F550145C0CE2DECF9C
:10119000E9FFDDCFEAFF060EE926000EEA22EF5056
:1011A0000001BF6FC06B03D00001010EC16F0001D1
:1011B000C1510EE156DB620EE66E180EE66E000EB1
:1011C000E66EE66AD1DAE552E552E552E55201D023
:1011D0002BDB42D0BAC0E9FFBBC0EAFF020EE92612
:1011E000000EEA22EE50EFCFEAFFE96EB3C0EFFF48
:1011F000010EE66EE66AF8DAE552E5522DD0010EF0
:10120000146EDECFE9FFDDCFEAFF020EE926000E05
:10121000EA22EF50145C1DE3DECFE9FFDDCFEAFFE9
:10122000020EE926000EEA22EF500001B36FB46B04
:10123000B351B41105E0200EB56F01EC13F002D0EC
:10124000100EB56F000EE66EE66ACEDAE552E55294
:1012500001D0EADA01D0E8DA040EE15C02E2E16AE8
:10126000E552E16EE552E7CFD9FF1200D9CFE6FF94
:10127000E1CFD9FF020EE126FD0EDBCFE9FFFE0E26
:10128000DBCFEAFF020EE926000EEA22EECFDEFFF8
:10129000EDCFDDFFDECFE9FFDDCFEAFF010EE9266E
:1012A000000EEA22EF50010A73E0020A71E0080A18
:1012B0004EE0010A28E00A0A01E06AD0BAC0E9FF5C
:1012C000BBC0EAFF020EE926000EEA22EE50EFCF85
:1012D000EAFFE96EEF6ABAC0E9FFBBC0EAFF020E9F
:1012E000E926000EEA22EE50EFCFEAFFE96E010E8A
:1012F000E926000EEA22EF6A020EE66EE66A74DA6A
:10130000E552E55246D0020E146EDECFE9FFDDCF86
:10131000EAFF040EE926000EEA22EF50D8801454AA
:1013200014E2BAC0E9FFBBC0EAFF020EE926000ED4
:10133000EA22EE50EFCFEAFFE96EEF6A010EE66EA9
:10134000E66A52DAE552E55201D06EDA22D0020E98
:10135000146EDECFE9FFDDCFEAFF040EE926000EB2
:10136000EA22EF50D880145411E2DECFE9FFDDCF3E
:10137000EAFF020EE926000EEA22EF5007E1000E16
:10138000E66EE66A31DAE552E55201D04DDA01D077
:101390004BDA020EE15C02E2E16AE552E16EE552EF
:1013A000E7CFD9FF1200D9CFE6FFE1CFD9FF080E72
:1013B000E126FD0EDBCFE9FFFE0EDBCFEAFF020EDA
:1013C000E926000EEA22EECFDEFFEDCFDDFFDECF15
:1013D000E9FFDDCFEAFF010EE926000EEA22EF5019
:1013E0000C0A01E12AD10F0A01E1E6D0020A72E0FB
:1013F000010A01E022D1BAC0E9FFBBC0EAFF020E38
:10140000E926000EEA22EE50EFCFEAFFE96EEF6A1E
:10141000BAC0E9FFBBC0EAFF020EE926000EEA22CD
:10142000EE50EFCFEAFFE96E010EE926000EEA2248
:10143000EF6ADECFE9FFDDCFEAFF040EE926000EFA
:10144000EA22EF500F0BE76E020EE7CFDBFFDECF95
:10145000E9FFDDCFEAFF040EE926000EEA22EF5095
:10146000E844010BE76E030EE7CFDBFFDBCFE6FFBF
:10147000020EDB50E824E552E724040DF3CF14F00C
:10148000F4CF15F0000E1426040E1522040E14C01D
:10149000DBFF050E15C0DBFF040EDBCFE9FF050EF9
:1014A000DBCFEAFFEF94EF500EE0BAC0E9FFBBC01C
:1014B000EAFF020EE926000EEA22EE50EFCFEAFF25
:1014C000E96E010EEF6E020EE66EE66A8DD9E55208
:1014D000E552B4D0DECFE9FFDDCFEAFF040EE92606
:1014E000000EEA22EF500F0BE76E020EE7CFDBFF94
:1014F000D950060FE96EDACFEAFF700EEE6E0F0ECE
:10150000ED6E020EDB50146E156AD950060FE96EAF
:10151000DACFEAFF1450EE261550ED22060EDBCF8F
:10152000E9FF070EDBCFEAFFEF90DECFE9FFDDCF6B
:10153000EAFF040EE926000EEA22EF50E844010B10
:10154000E76E030EE7CFDBFFDBCFE6FF020EDB50DB
:10155000E824E552E724040DF3CF14F0F4CF15F09E
:10156000000E1426040E1522040E14C0DBFF050E17
:1015700015C0DBFF040EDBCFE9FF050EDBCFEAFF72
:10158000EF94030EDB5007E0040EDBCFE9FF050EFE
:10159000DBCFEAFFEF8C030EDB5007E1040EDBCF5D
:1015A000E9FF050EDBCFEAFFEF9C000EE66EE66A70
:1015B0001BD9E552E55242D0DECFE9FFDDCFEAFF8D
:1015C000040EE926000EEA22EF500F0BE76E020E22
:1015D000E7CFDBFFDECFE9FFDDCFEAFF040EE92630
:1015E000000EEA22EF50E844010BE76E030EE7CF4E
:1015F000DBFFDBCFE6FF020EDB50E824E552E724F9
:10160000040DF3CF14F0F4CF15F0000E1426040EE1
:101610001522040E14C0DBFF050E15C0DBFF040EFF
:10162000DBCFE9FF050EDBCFEAFFEF84000EE66EAD
:10163000E66ADAD8E552E55201D0F6D8080EE15C48
:1016400002E2E16AE552E16EE552E7CFD9FF12000E
:101650000001B751E840E840E8401F0B0F0B040DB4
:10166000F3CFE9FFF4CFEAFF710EE926000EEA227C
:10167000EE50ED1019E0B751E840E840E8401F0B8C
:101680000F0B040DF3CFE9FFF4CFEAFF710EE9264B
:10169000000EEA22EECF14F0EFCF15F004D015C003
:1016A000FAFF1450F96EFBDF12000001B751E84059
:1016B000E840E8401F0B0F0B040DF3CFE9FFF4CF18
:1016C000EAFF710EE926000EEA22020EE926000E5C
:1016D000EA22EE50ED101DE0B751E840E840E84046
:1016E0001F0B0F0B040DF3CFE9FFF4CFEAFF710ED0
:1016F000E926000EEA22020EE926000EEA22EECFCB
:1017000014F0EFCF15F004D015C0FAFF1450F96EA5
:10171000FBDF1200D9CFE6FFE1CFD9FFFD0EDBCF13
:101720006BF0FE0EDBCF6CF0E552E7CFD9FF120075
:10173000D9CFE6FFE1CFD9FFFD0EDBCF6DF0FE0E76
:10174000DBCF6EF0E552E7CFD9FF1200D9CFE6FF2D
:10175000E1CFD9FFFD0EDBCF6FF0FE0EDBCF70F0D7
:10176000E552E7CFD9FF1200D9CFE6FFE1CFD9FF8D
:10177000FD0EDBCFE9FFFE0EDBCFEAFFD890E936A6
:10178000EA36D890E936EA36710EE926000EEA22EA
:10179000FB0EDBCFEEFFFC0EDBCFEDFFE552E7CF1C
:1017A000D9FF1200D9CFE6FFE1CFD9FFFD0EDBCF85
:1017B000E9FFFE0EDBCFEAFFD890E936EA36D89093
:1017C000E936EA36710EE926000EEA22020EE92613
:1017D000000EEA22FB0EDBCFEEFFFC0EDBCFEDFFAF
:1017E000E552E7CFD9FF1200D9CFE6FFE1CFD9FF0D
:1017F000FF0EE76EFD0EDBCF14F0FE0EDBCF15F013
:10180000E7501416156ABAC0E9FFBBC0EAFFEE52F2
:1018100014C0EFFFBAC0E9FFBBC0EAFFC80EEF6E0D
:10182000E552E7CFD9FF12000401080E016F840EC4
:10183000046F006F12000001B65103E1040EB56F92
:1018400002D0100EB56FB6C06EFFB669000EE66E20
:10185000E66AE66EE66A88DFE552E552E552E55251
:101860001200D9CFE6FFE1CFD9FF040EE126000137
:10187000BF51C01156E0080EBF5D000EC05905E211
:10188000BFC014F0C0C015F003D0080E146E156A66
:10189000020E14C0DBFF030E15C0DBFFDE6ADD6A3B
:1018A000DECF14F0DDCF15F0020EDBCF16F0030E05
:1018B000DBCF17F01650145C1750155831E2DECF0D
:1018C00016F0DDCF17F0186ABC511624F36EBD5127
:1018D0001720F46EBE511820F86EF4CFF7FFF3CF47
:1018E000F6FF0800F550E66EDECF14F0DDCF15F000
:1018F000BAC0E9FFBBC0EAFF020EE926000EEA22E9
:101900001450EE24E76E1550EE20EA6EE7CFE9FFA3
:10191000E552E750EF6EDF2A010E01E3DB2AC0D764
:101920000ED0020EDB6A030EDB6A000EE66EE66A7C
:10193000E66EE66A19DFE552E552E552E552BAC0B5
:10194000E9FFBBC0EAFFEE52020EDBCFEFFFBAC0E9
:10195000E9FFBBC0EAFFEF50400A400B80090809CD
:10196000E66EBAC0E9FFBBC0EAFFE552E750EF6E92
:10197000020EDBCF14F0030EDBCF15F0166A145005
:101980000001BC271550BD231650BE23020EDBCF2D
:1019900006F0030EDBCF07F00650BF5F0750C05BB9
:1019A000040EE15C02E2E16AE552E16EE552E7CF46
:0419B000D9FF120049
:0C19B40016EC12F0FB0EDBCFF3FFDB069D
:1019C000F35000090AE064EC12F0FA0ECFEC12F0CA
:1019D000F3E1151CF1E1010E01D0000E45EF12F00C
:1019E00016EC12F03B0EE12402E3E168E652E16EF0
:1019F000010EDB6A020EDB6AF90EDBCFF6FFFA0E90
:101A0000DBCFF7FFFB0EDBCFF8FF0800F550DF6EF2
:101A1000DF5002E169EF11F0250EDF5C02E05CEFC0
:101A200011F0030EDB6A040EDB6A050EDB6A060E9C
:101A3000DB6A070EDB6A7EEC11F02D0EDF5C0CE03A
:101A40002B0EDF5C09E0200EDF5C06E0230EDF5C7E
:101A500003E0300EDF5C1AE1DF50300A14E0130AB5
:101A60000FE0030A0AE00B0A05E0060AE4E1030EB0
:101A7000DB80E1D7030EDB82DED7030EDB84DBD70E
:101A8000030EDB86D8D7030EDB88D5D72A0EDF5CA2
:101A90001BE17AEC11F0C8EC11F010E0030EDB80D2
:101AA00006680768130EDBCF0BF0140EDBCF0CF0CB
:101AB0001EEC1AF0040E04C0DBFF03D0130EB1ECD1
:101AC00011F07EEC11F00BD0090EDB6A1FEC12F066
:101AD00003E093EC12F0FAD7090EB1EC11F0030E0B
:101AE000DBB0DB982E0EDF5C1BE17EEC11F02A0EE2
:101AF000DF5C0BE17AEC11F0C8EC11F003E1130E9E
:101B000003EC12F07EEC11F00BD0090EDB6A1FEC37
:101B100012F003E093EC12F0FAD7090E03EC12F086
:101B2000680EDF5C07E17EEC11F0680EDF5C1DE102
:101B3000030E18D0740EDF5C17E07A0EDF5C14E041
:101B4000480EDF5C06E0540EDF5C03E05A0EDF5CFB
:101B500002E1020E07D06C0EDF5C03E06A0EDF5C70
:101B600004E1010E56EC12F0C9DBDF506E0A01E110
:101B70007FD31E0A01E192D1200A01E18FD13F0AF1
:101B800001E149D11A0A01E146D10D0A01E143D12F
:101B9000200A01E140D13A0A01E13DD1200A01E1E8
:101BA0003AD1260A01E135D10D0A01E132D11A0AF2
:101BB00001E1D9D0200A4AE0300A1FE0460A0EE0CF
:101BC000250A01E083D3D950F90FE96EFF0EDA2020
:101BD000EA6E010EEE5E000EEE5AEE5A64EC12F062
:101BE000250EE66E95DB03E1151C01E169D360EC7F
:101BF00012F001E26BD3DB2A69D3080EDB6A040E14
:101C0000DB50010806E2040EDB0428EC12F0DB5086
:101C10008BDB080EDB5009E0030EDB50010B05E106
:101C200072DB01E04DD3080EDB6A64DBEFCFDFFF30
:101C3000D8EC12F003E1151C01E142D360EC12F084
:101C400001E3DB2A60DB01E141D33AD3070EDB502D
:101C500002080FE1A4EC12F0030E6BEC12F00E0E72
:101C6000EECFDBFF0F0EEECFDBFF100EEECFDBFF74
:101C700020D0F70EDBCF17F0F80EDBCF18F0020EF6
:101C8000175E000E185AF70E17C0DBFFF80E18C0CB
:101C9000DBFF17C0E9FF18C0EAFF5BEC12F0166A21
:101CA0000E0E14C0DBFF0F0E15C0DBFF100E16C0AA
:101CB000DBFF0E0EDBCFE6FF0F0EDBCFE6FF100ED5
:101CC000DBCFE6FF86EC18F0E552E552E552130E45
:101CD00005C0DBFF140E06C0DBFF060EDB5005E07F
:101CE000130E9FEC12F001E26ADBC3EC12F002E289
:101CF000130E37DB86EC12F006E0040E9FEC12F0B8
:101D000002E2050E2EDB030EDBB005D0FCDA01E0AB
:101D1000D7D2080EDB6A090EDB6A0E0EDBCFF6FFA8
:101D20000F0EDBCFF7FF100EDBCFF8FF0800F550EA
:101D3000DF6EDF5014E0C9EC12F011E2D8EC12F0C3
:101D400003E1151C01E1BCD2BBDB01E3DB2A090E78
:101D5000DB2AD9500E0FE96E000ECBDBE7D7D3DAC2
:101D600001E1B4D2ADD2C6DA110EEECFDBFF120E16
:101D7000EDCFDBFF110EDBCFE6FF120EDBCFE6FF70
:101D800078EC18F0E552E552130EF3CFDBFF140E9A
:101D9000F4CFDBFF060EDB5004E0130ED0DB01E2D4
:101DA0000EDBC3EC12F002E2130EDBDAAFDB05E070
:101DB000040EC5DB02E2050ED4DA030EDBB005D05B
:101DC000A2DA01E07DD2080EDB6A090EDB6A110E91
:101DD000DBCFE9FF120EDBCFEAFFEFCFDFFFDF50F3
:101DE00014E0D7DB12E2E4DB03E1151C01E168D269
:101DF00067DB01E3DB2A090EDB2A110EDB2ADBCFCE
:101E0000E9FF120EE8E3DB2AE6D77DDA01E15ED2D4
:101E100057D2030EDB8E070EDB0410E195DB040EB8
:101E20005ADB0A0EEECFDBFF0B0EEECFDBFF0C0E04
:101E3000EECFDBFF0D0EEECFDBFF6CD0070EDB50DD
:101E400003082CE1030EDBAE0DD0B2DA020E76DA17
:101E5000EFCF14F0156A166A176A14AE39D01568F8
:101E6000166835D0F70EDBCF15F0F80EDBCF16F085
:101E7000020E155E000E165AF70E15C0DBFFF80EA7
:101E800016C0DBFF15C0E9FF16C0EAFFEFCF14F064
:101E90000A0E14C0DBFF0B0EDB6A38D0070EDB50D6
:101EA000020809E1030EDBAE04D059DB16AE10D0F8
:101EB0000ED055DB0DD0030EDBAE12D079DA020E58
:101EC0003DDAF9DA166A176A15AE02D01668176895
:101ED000E2DA0C0E16C0DBFF0D0E17C0DBFF1AD0C6
:101EE000F70EDBCF16F0F80EDBCF17F0020E165E02
:101EF000000E175AF70E16C0DBFFF80E17C0DBFFF7
:101F000016C0E9FF17C0EAFFD6DAC5DA0C0EDB6AA5
:101F10000D0EDB6A060EDB5005E1010EF36E050EB9
:101F2000F3CFDBFF150EDB6A160EDB6AD950370FD5
:101F3000146E000EDA20156E390E14C0DBFF3A0E57
:101F400015C0DBFF380EDB6A080EDB6A0A0EAEDA5C
:101F5000DF50780A12E0200A10E0280A0CE0200A7C
:101F60000AE03F0A06E00D0A02E0200A08E1020E3C
:101F700005D0080E03D0080EDF26100E97DA030EE8
:101F8000DBBE02D0DB92DB94DB50800B24E08ADAEC
:101F9000D890030EEB50000A08E6000EEE5C000E2F
:101FA000EE58000EEE58000EEE5815E213DA0968EE
:101FB0000A680B680C68E6EC19F00A0E00C0DBFF3B
:101FC0000B0E01C0DBFF0C0E02C0DBFF0D0E03C0C9
:101FD000DBFF2D0E08D0030EDBA202D02B0E03D0A8
:101FE000DBA408D0200EF36E170EF3CFDBFF150E27
:101FF000DB2A02D0170EDB6A050EDB5003E1B7D9EE
:1020000001E189D0880E146E350E156E000E166E25
:10201000070EDBCF17F0186A196A1A6A17C009F0A1
:1020200018C00AF019C00BF01AC00CF0D3D94BEC51
:102030001AF014500024F36E15500120F46E16505F
:102040000220F86EF4CFF7FFF3CFF6FF0800090E79
:10205000F5CFDBFF580EDF5C0FE1610EF36E090E6A
:102060007BD90AE3200E146E090EDBCFE7FF145074
:10207000E75E090EE7CFDBFF070EDBCF14F0156A32
:10208000166A176A0FDA14C009F015C00AF016C0F4
:102090000BF017C00CF0EECF04F0EECF05F0EECF52
:1020A00006F0EFCF07F04BEC1AF007C0EDFF06C0CB
:1020B000EDFF05C0EDFF04C0EFFF390EDBCFE9FFF8
:1020C000DB063A0EDBCFEAFF01E2DB06090EDBCFCF
:1020D000EFFF150EDB2A4BD995E1030EDBA61DD0D1
:1020E0006F0EDF5C06E1C1D918E3150EDB285BDA61
:1020F00014D0780EDF5C09E0580EDF5C06E0620E5B
:10210000DF5C03E0420EDF5C08E1020EF36E160EA8
:10211000F3CFDBFF02D0150EDB6A030EDB50100B92
:102120000EE0040EDBCF14F0050EDB50D880145403
:1021300006E2060EDB5003E1040EDB5034DA95D9DB
:102140000AE2050EDBCFE7FF150EDB50E75E050E5A
:10215000E7CFDBFF02D0050EDB6A040EDBCF14F005
:10216000160E45D9D880145414E2160EDBCFE6FFC4
:10217000150EDBCFE6FF040EDBCFE6FF050EDB50CE
:10218000E552E75CE552D880E754E552D880E75441
:102190005FD9030EDB50010B0BE1080EDB5008E0AA
:1021A000B2D801E08DD0080EDB50BED8080EDB6A35
:1021B000170EDB5007E088D9170EF1D903E1151C83
:1021C00001E17ED0160EDB5016E07ED9300EE66EB1
:1021D0009FD802E1151C74E077D9DFCFE6FFA4ECAD
:1021E00019F0E552E552E552F4CF15F00001F31C69
:1021F00002E1151C65E0050EDBCF14F0160EDB5076
:10220000D880145409E2050EDBCFE7FF160EDB5031
:10221000E75E050EE7CFDBFF300EE66E050ECBD98D
:102220004FE1390EDB2ADBCFE9FF3A0E01E3DB2A6F
:10223000DBCFEAFF090EEFCFDBFFDB500EE044D926
:10224000090EADD902E1151C3BE0390EDB2ADBCFCC
:10225000E9FF3A0EEDE3DB2AEBD755D831E1160E54
:10226000DBCFE6FF080EC3D8E552E7245DD82ED0B9
:10227000070EDB50030A1CE0010A14E0030A07E022
:102280007BD9DBCFEEFF020EDBCFEDFF1FD0F5D801
:10229000196A17AE02D0186819682CD8BCD819C0B2
:1022A000EEFF14D0EAD817BE186824D8B4D80ED0E0
:1022B00063D9DBCFEFFF0AD07BD905E1151C03E121
:1022C000F368F46810D0FCD801E3DB2A79D905EF74
:1022D0000DF0010EDBCF14F0020EDBCF15F014C0B1
:1022E000F3FF15C0F4FF3B0EE15C02E2E16AE55248
:1022F000E16ECBD029D9020E6BEF12F061D9080044
:10230000F550DF6E1200200EE66E080EDBEF12F0C5
:10231000A4EC19F0E552E552E552F3CF14F0F4CFF6
:1023200015F00001F31C1200146E156AD950010F4C
:102330004DD91450EE261550ED221200185E000EF5
:10234000195AF70E18C0DBFFF80E19C0DBFF18C0D2
:10235000E9FF19C0EAFF1200DBCFF4FFF350F45C91
:102360001200DB50E76E040EE7CFDBFF12000A0E0F
:10237000DBCF14F00B0EDBCF15F00C0EDBCF16F01D
:102380000D0EDBCF17F01450151016101710120099
:10239000130EEECFDBFF140EEDCFDBFF130EDBCF02
:1023A00014F0140EDBCF15F00001800E151412008E
:1023B000F70EDBCF18F0F80EDBCF19F01200050E88
:1023C000DB50E66ED950130F01D9E552E750EE6E9F
:1023D000ED6A12000A0EDBCF04F00B0EDBCF05F026
:1023E0000C0EDBCF06F00D0EDBCF07F01200DBCFBB
:1023F000E6FF150EDBCFE6FF050EDB50E552E724C6
:10240000E552E7241200DB50CED8010EF36E060E23
:10241000F3CFDBFF1200EE50EFCFEAFFE96E16C0FC
:10242000EEFF17C0EEFF18C0EEFF1200D9CFE6FF97
:10243000DACFE6FFE1CFD9FFE2CFDAFF1200DFCF3C
:10244000E6FFE66A86EC1AF0E552E552F350120018
:10245000E76E080EE7CFDBFF1200EECF14F0EECFF1
:1024600015F0EFCF16F0176A1200050EDBCF14F04F
:10247000150EDB50D88014541200010EDBCF16F07D
:10248000020EDBCF17F0186A1200E552E5CFDAFF33
:10249000E7CFD9FF12000A0E14C0DBFF0B0E15C0E8
:1024A000DBFF1200D9500A0FE6EF12F0F36E070EB1
:1024B000F3CFDBFF1200EECF14F0EFCF15F01200D8
:1024C000010EDB2A020E1200FC0EDBCFE6FFFD0E32
:1024D000DBCFE6FF1200145E000E155AF70E14C093
:1024E000DBFFF80E15C0DBFF14C0E9FF15C0EAFFE3
:1024F0001200DA20EA6EEF2AEECFF6FF000EEF228E
:10250000EECFF7FFEF22EECFF8FF1200040EDBCF85
:10251000E6FF130EDB50E552E75C9ADFDB5004DF89
:10252000060EDB501200090EDB500A0DF350DF24BB
:10253000D00FE76E090EE7CFDBFF7EEF11F0DB5027
:10254000F36E050EACEF11F0F70EDBCF14F0F80EC2
:10255000DBCF15F01200DFCFE6FF88EF11F028DFA8
:10256000030EECDE2DEF12F0DAEC0CF0E552E55242
:10257000E552E55200091200BDDEEE50EFCFEAFF52
:10258000E96E010E1200130EDB50F36E040EACEF79
:1025900011F0040EDB50F36E090EACEF11F0DBCF3F
:1025A000E6FF88EF11F0E76E050EE7CFDBFF1200C4
:1025B0008BDFABEF12F0DBCFE6FF86DFB4EF12F07C
:1025C000D950F90FE96EFF0E79EF12F0E96E000EA7
:0625D000DA20EA6E1200A1
:0A25D6000001C26BC20EC36F010EBC
:1025E000C46FC56BC66BC76B080EC86FC991C99322
:1025F000020EE66E270EE66E98EC0BF0E552E55201
:102600001200000EE66EE66A010EE66EE66AB4ECB3
:102610000BF0E552E552E552E552000EE66EE66A31
:10262000020EE66EE66AB4EC0BF0E552E552E552B6
:10263000E552000EE66EE66A020EE66EE66AD2EC3F
:102640000BF0E552E552E552E5521A0E716E1E0E80
:10265000726E04010D6B900E0E6F040E0F6F480E1C
:102660000C6F020EE66E270EE66E98EC0BF0E5524C
:10267000E5520001D86B100ED36F040ED46F140E08
:10268000D56F040ED66FCD69800ECF6F050ED06F5B
:10269000CB6BD5C0E9FFD6C0EAFF020EE926000EDB
:1026A000EA22800EEE6E050EED6ED5C0E9FFD6C0B3
:1026B000EAFFEE52EF6AD5C0E9FFD6C0EAFF480E46
:1026C000EF6ECC6BCE69000ED16F060ED26FD3C009
:1026D000E9FFD4C0EAFFEE52400EEF6ED3C0E9FF2F
:1026E000D4C0EAFF020EE926000EEA22000EEE6ECA
:1026F000060EED6ED3C0E9FFD4C0EAFF880EEF6E80
:102700001200D9CFE6FFE1CFD9FF040EE126B8C011
:10271000E9FFB9C0EAFF020EE926000EEA22EECF79
:10272000DEFFEDCFDDFFDECFE9FFDDCFEAFFEF50CB
:10273000630B210A01E0BBD0DECFE9FFDDCFEAFF6A
:10274000010EE926000EEA22EF50230A01E1ACD087
:10275000010A01E185D0030A2EE0010A1EE0220AE7
:1027600019E0010A17E0070A15E0050A0BE0010A63
:1027700001E09AD0000EE66EE66AF4EC0BF0E5524A
:10278000E55294D0000EE66EE66AF4EC0BF0E552EA
:10279000E5528CD014EC0CF089D0DE0EE66E280EDB
:1027A000E66E000EE66EE66AD2EC0BF0E552E552FC
:1027B000E552E5527BD0DECFE9FFDDCFEAFF060E22
:1027C000E926000EEA22020EEECFDBFF030EEDCF6C
:1027D000DBFF020EDBCF14F0030EDBCF15F0070E8C
:1027E000D8801454000E155407E2070EF36E020E43
:1027F000F3CFDBFF030EDB6A020EDBCFE6FF030E37
:10280000DBCFE6FFC20EE66E000EE66EBAC0E9FF51
:10281000BBC0EAFF020EE926000EEA22EECFE6FF79
:10282000EFCFE6FF4DEC18F0146E060EE15E14508B
:10283000020EDBCFE6FF030EDBCFE6FFF4EC0BF07E
:10284000E552E552C60EE66E280EE66E000EE66E06
:10285000E66AB4EC0BF0E552E552E552E55226D0BB
:10286000DECFE9FFDDCFEAFF020EE926000EEA2205
:10287000EECFC9F0EDCFCAF0B60EE66E2A0EE66EC8
:10288000000EE66EE66AB4EC0BF0E552E552E55256
:10289000E552000EE66EE66AF4EC0BF0E552E55206
:1028A0000001010EE86F02D014EC0CF002D014EC21
:1028B0000CF0040EE15C02E2E16AE552E16EE552E1
:1028C000E7CFD9FF1200000EE66EE66AE66EE66A12
:1028D000B4EC0BF0E552E552E552E5521200D9CFC7
:1028E000E6FFE1CFD9FF080EE126070EE66EE66AA5
:1028F000B8C0E9FFB9C0EAFF020EE926000EEA22DD
:10290000EECFE6FFEFCFE6FFC20EE66E000EE66EFC
:102910004DEC18F0146E060EE15E1450146A1B0E96
:10292000156EB70E166E176A14C004F015C005F0C8
:1029300016C006F017C007F0C2C009F0C3C00AF005
:10294000C4C00BF0C5C00CF04BEC1AF004C0DEFFA5
:1029500005C0DEFF06C0DEFF07C0DDFFDD52DD5231
:10296000C2C009F0C3C00AF0C4C00BF0C5C00CF06F
:10297000046A1B0E056EB70E066E076A4BEC1AF062
:10298000040E00C0DBFF050E01C0DBFF060E02C017
:10299000DBFF070E03C0DBFF040EDBCF14F0050ED8
:1029A000DBCF15F0060EDBCF16F0070EDBCF17F0EE
:1029B000010E1F0B07E0D890143615361636173661
:1029C000E806F9E10001C251145CC3511558C45125
:1029D0001658C551175809E2D9CFE9FFDACFEAFFF7
:1029E000EE06000EEE5AEE5AEE5AD9CFE9FFDACFD4
:1029F000EAFFEECF14F0EECF15F0EECF16F0EFCFEA
:102A000017F01450AF6ED9CFE9FFDACFEAFFEECF5F
:102A100014F0EECF15F0EECF16F0EFCF17F0080E52
:102A2000D8901732163215321432E806F9E11450F4
:102A3000B06E000EE66EE66AE66EE66AD2EC0BF069
:102A4000E552E552E552E5529E0EE66E2A0EE66E1E
:102A5000000EE66EE66AB4EC0BF0E552E552E55284
:102A6000E552000EE66EE66AF4EC0BF0E552E55234
:102A7000B8C0E9FFB9C0EAFFEE52080EEF6EB8C069
:102A8000E9FFB9C0EAFF880EEF6E080EE15C02E2D2
:102A9000E16AE552E16EE552E7CFD9FF1200000E80
:102AA000E66EE66AE66EE66AB4EC0BF0E552E552D5
:102AB000E552E5521200000EE66EE66AE66EE66A40
:102AC000B4EC0BF0E552E552E552E5521200D3C0EA
:102AD000E9FFD4C0EAFFEF50800B01E0F8D7120005
:102AE000D5C0E9FFD6C0EAFFEF50800B01E0F8D770
:102AF0001200D3C0E9FFD4C0EAFFEF50800B02E020
:102B0000000E01D0010E00D01200D5C0E9FFD6C0E2
:102B1000EAFFEF50800B02E0000E01D0010E00D062
:102B200012000001D76BD3DF0001CEA111D0000E3F
:102B3000D16F060ED26FD3C0E9FFD4C0EAFF020EF8
:102B4000E926000EEA22400EEE6E060EED6E10D063
:102B5000400ED16F060ED26FD3C0E9FFD4C0EAFF9A
:102B6000020EE926000EEA22000EEE6E060EED6E53
:102B7000CE1FD3C0E9FFD4C0EAFFEE52EFCFCCF0B6
:102B8000D3C0E9FFD4C0EAFFEE52400EEF6ED3C0CF
:102B9000E9FFD4C0EAFFEF50400A400B8009080962
:102BA000E66ED3C0E9FFD4C0EAFFE552E750EF6E0E
:102BB000CC5100D01200D9CFE6FFE1CFD9FFD5C06C
:102BC000E9FFD6C0EAFFEF50800B01E0F8D7000123
:102BD000CD5111E0D5C0E9FFD6C0EAFF020EE926CB
:102BE000000EEA22800EEE6E050EED6EC00ECF6F67
:102BF000050ED06F10D0D5C0E9FFD6C0EAFF020E97
:102C0000E926000EEA22C00EEE6E050EED6E800E75
:102C1000CF6F050ED06FD5C0E9FFD6C0EAFFEE52E8
:102C2000FE0EDBCFEFFFD5C0E9FFD6C0EAFFEF50C5
:102C3000400A400B80090809E66ED5C0E9FFD6C0FE
:102C4000EAFFE552E750EF6ECD1F000E00D0E552CF
:102C5000E7CFD9FF1200E66AAEDFE55212000001AD
:102C6000CB51000816E251DF000901E1FCD7CBC0CF
:102C7000E6FFA1DFE552400E0001CB5D04E100015B
:102C8000010EEA6F02D00001EA6B0001CB6B00017C
:102C9000E96B1200040E0001E95D27E30001CB514E
:102CA000000819E20001EB5115E12FDF000912E0E5
:102CB000CBC0E6FF80DFE552400E0001CB5D04E1B2
:102CC0000001010EEA6F02D00001EA6B0001CB6B3C
:102CD0000001E96B09D00001EA5106E0E66A6BDF0A
:102CE000E5520001EA6BE96B01D0E92B1200D9CF64
:102CF000E6FFE1CFD9FF0001010EEB6FFE0EDB50C6
:102D0000CFC0E9FFD0C0EAFFEF6E0001CF2B000E6D
:102D1000D023CB2B0001EA6B400E0001CB5D09E113
:102D2000CBC0E6FF48DFE5520001CB6B0001010E8E
:102D3000EA6F0001EB6BE96BE552E7CFD9FF1200B8
:102D4000D9CFE6FFE1CFD9FFE652DF6A0001CC51CF
:102D500005E1E7DE0001CC6FCC51FBE0D1C0E9FF1B
:102D6000D2C0EAFFEFCFDFFFD12B000ED223CC077A
:102D7000DF5000D0E552E552E7CFD9FF1200D9CF9E
:102D8000E6FFE1CFD9FF0001CC5115E0D1C0E9FF4A
:102D9000D2C0EAFFEF50E66EFD0EDBCFE9FFFE0E7C
:102DA000DBCFEAFFE552E750EF6ED12B000ED223C6
:102DB000CC07010E1FD09DDE00091AE0B2DE000133
:102DC000CC6FCC5115E0D1C0E9FFD2C0EAFFEF5083
:102DD000E66EFD0EDBCFE9FFFE0EDBCFEAFFE5522C
:102DE000E750EF6ED12B000ED223CC07010E02D09C
:102DF000000E00D0E552E7CFD9FF1200D9CFE6FF91
:102E0000E1CFD9FF0001CC5111E0D1C0E9FFD2C020
:102E1000EAFFEF50E66EFD0EDBCFE9FFFE0EDBCFE3
:102E2000EAFFE552E750EF6E010E1BD062DE0009AB
:102E300016E077DE0001CC6FCC5111E0D1C0E9FF84
:102E4000D2C0EAFFEF50E66EFD0EDBCFE9FFFE0ECB
:102E5000DBCFEAFFE552E750EF6E010E02D0000E25
:0A2E600000D0E552E7CFD9FF1200C1
:062E6A00D9CFE6FFE1CF25
:102E7000D9FF090EE126EBEC12F0D8D8040EE66E6D
:102E8000E66A570EE66E320EE66E000EE66E140E21
:102E9000E66E320EE66E000EE66E020EE66E320E44
:102EA000E66E000EE66E22EC04F0146E0B0EE15E90
:102EB00014506CEC04F04B0E6912F28CF28EA08A66
:102EC000050EC26E0D0EC16E010EC06E92968096FA
:102ED000200E0001B55DFCE3940EE66E2C0EE66E4E
:102EE0008AEC0BF0E552E552D9CFE6FFDACFE6FFE8
:102EF000BFEC16F0E552E55200090DE0DF28E66E62
:102F000077EC16F0E55293988188140EE66E6FEC1C
:102F10001AF0E5528198D9CFE6FFDACFE6FFFEEC52
:102F200016F0E552E552000910E0A0EC16F0DF6E55
:102F3000DF28E66E77EC16F0E55293988188140E40
:102F4000E66E6FEC1AF0E5528198D9CFE6FFDACF42
:102F5000E6FFBFEC16F0E552E55200090FE0DF286E
:102F6000E66E77EC16F0E5522FEC16F09398818818
:102F7000140EE66E6FEC1AF0E5528198C282C2B26E
:102F8000FED7C450E66EE66A990E146E350E156EC5
:102F9000166A14C0E6FF15C0E6FF16C0E6FFD9505A
:102FA000010FE66E000EDA20E66EABEC18F0176E3D
:102FB000070EE15E1750DF6ADFCF14F014C0E6FFA2
:102FC000D950010FE66E000EDA20E66E78EC18F0AC
:102FD000E552E552E552E7CF14F0F3CF15F0F4CF08
:102FE00016F01550145C000E165413E2D950010F60
:102FF000146EDACF15F0DF500F011424E96E000EC5
:103000001520EA6EEF50E66E77EC16F0E552DF2AF7
:10301000D3D72FEC16F068D7090EE15C02E2E16A23
:10302000E552E16EE552E7CFD9FF12000F0EC11253
:10303000B56A12001200D8CFE4FFE0CFE4FFE46EDF
:10304000DACFE4FFE2CFDAFFE9CFE4FFEACFE4FF33
:10305000E6521AEC05F0A19AE552E5CFEAFFE5CF7A
:10306000E9FFE5CFDAFFE550E5CFE0FFE5CFD8FF98
:103070001000DACFE4FFE2CFDAFFE9CFE4FFEACFD6
:10308000E4FFE6521AEC05F0A19AE552E5CFEAFF1B
:0A309000E5CFE9FFE5CFDAFF1100FC
:06309A00D9CFE6FFDACFFA
:1030A000E6FFFA0EE3CFD9FFFB0EE3CFDAFFFC0E0B
:1030B000E3CFE9FFFD0EE3CFEAFFE9CFF3FFEACF6D
:1030C000F4FFF80EE35003E1F90EE35008E0F80EC8
:1030D000E30602E2F90EE306DECFEEFFF2D7FF0EC3
:1030E000E3CFDAFFE552FF0EE3CFD9FFE55212003E
:1030F000FE0EE3CFE9FFFF0EE3CFEAFFF36AF46AC7
:10310000EE5203E0F34AF42AFBD71200FF0EE3CF9E
:10311000F8FFE552FF0EE3CFF7FFE552FF0EE3CFD6
:10312000F6FFE552E66AE66AE66A0900F55209E04A
:10313000FD0EE32A05E1FE0EE32A02E1FF0EE32A7B
:10314000F4D7FD0EE3CF05F0FE0EE3CF06F0FF0E41
:06315000E3CF07F01200BE
:0A315600D9CFE6FFDACFE6FFE1CFA4
:10316000D9FFE2CFDAFFE652E652E652E652D950F4
:10317000F90F146EFF0EDA20156E020E14C0DBFF7D
:10318000030E15C0DBFF020EDBCFE6FF030EDBCF25
:10319000E6FFF90EDBCFE6FFFA0EDBCFE6FFFB0E14
:1031A000DBCFE6FFD950FC0FE66EFF0EDA20E66EAD
:1031B000F0EC0CF0146E070EE15C02E2E16AE552FD
:1031C000E16E1450F3CFDEFFF4CFDDFFFC0EDBCF5A
:1031D000E9FFFD0EDBCFEAFFEF6ADECF14F0DDCFB3
:1031E00015F014C0F3FF15C0F4FF040EE15C02E219
:1031F000E16AE552E16EE552E5CFDAFFE7CFD9FFAC
:023200001200BA
:0E3202001201000202000008D8040A000200B7
:103210000102030109024300020100806409040065
:10322000000102020100052400100104240202052D
:10323000240600010524010101070581030A00405D
:1032400009040100020A0000000705020240000014
:1032500007058202400000040309042A03440061B8
:10326000006E006700650072006F0075007300203B
:1032700000500072006F0074006F007400790070DD
:103280000065007300120343004400430020005413
:10329000006500730074001203300030003000300D
:0932A00000300030003000310064
:0132A9000024
:0632AA002A0EF66E080E6C
:1032B000F76E000EF86E00010900F550DE6F090090
:1032C000F550DF6F03E1DE6701D03DD00900F55016
:1032D000D96F0900F550DA6F0900F550DB6F09006E
:1032E0000900F550E96E0900F550EA6E0900090081
:1032F0000900F550DC6F0900F550DD6F0900090089
:10330000F6CFE0F0F7CFE1F0F8CFE2F0D9C0F6FF6A
:10331000DAC0F7FFDBC0F8FF0001DC5302E1DD5348
:1033200007E00900F550EE6EDC07F8E2DD07F9D79B
:10333000E0C0F6FFE1C0F7FFE2C0F8FF0001DE07E2
:08334000000EDF5BBFD7120095
:08334800D9CFE6FFDACFE6FF62
:10335000E1CFD9FFE2CFDAFFFB0EDBCF14F0FC0E9A
:10336000DBCF15F00001800E15141AE1FB0EDBCF48
:10337000E9FFFC0EDBCFEAFFEECFF3FFEDCFF4FF6A
:10338000EE2A000EEF22F3CFE9FFF4CFEAFFFD0EA5
:10339000DBCFEFFFEF50156AF36E15C0F4FF10D0CE
:1033A000FB0EDB50FE0806E1FD0EDBCFE6FFB6ECC0
:1033B0001AF005D0FD0EDBCFE6FFCFEC1AF0E55298
:0C33C000E552E5CFDAFFE7CFD9FF12009D
:0433CC00045009029E
:1033D000F3CF00F0F4CF01F00A02F3500126000E03
:1033E000F420026E04500B02F3500226000EF4206B
:1033F000036E04500C02F350032605500902F350EB
:103400000126F4500222000E032205500A02F35056
:103410000226F450032205500B02F35003260650F7
:103420000902F3500226F450032206500A02F35018
:0C343000032607500902F3500326120087
:04343C0007C013F0C2
:1034400006C012F006500B02F4CF05F0F3CF04F0E3
:1034500007500C02F4CF07F0F3CF06F00B02F35045
:103460000526F4500622E86A072212500C02F35097
:103470000526F4500622E86A07220CAE44EF1AF043
:103480001250065E1350075A13AE000C0B50065E26
:063490000C50075A000C6D
:0A349600036A026A016A006A200E50
:1034A000E76ED89004360536063607360036013604
:1034B000023603360950005C0A5001580B5002587E
:1034C0000C50035809E30950005E0A50015A0B5092
:0E34D000025A0C50035A042AE72EE4D71200C9
:0234DE00FF0EDF
:1034E000E3501C6EEF0E01D0F30EE76EE72E76EF81
:1034F0001AF00C0E1B6EE76AE72E7CEF1AF01B2EFB
:0C3500007BEF1AF01C2E74EF1AF0120082
:04350C00F36AF46A00
:10351000FF0EE124E96EFF0EE220EA6EED6607D0B1
:103520002F0EEF6404D03A0EEF6001D0F32A1200A0
:10353000000EF36E00EE00F0080E01D81200EA60F3
:1035400002D0EE6AFCD7F350E9601200EE6AFCD7B5
:1035500013EE00F023EE00F0F86A0F9C55EC19F022
:0C356000D0EC1AF035EC17F0FBD712008D
:04356C00FF0EE3501B
:10357000ACBA04D0AF6AAB8EAC8A949CACA2FED736
:08358000AD6EF36EF46A120057
:0835880030313233343536379F
:093590003839616263646566006C
:0535990025690A0D0088
:02359E00120019
:0235A000120017
:0935A2004E4F454D53000000009E
:020000040030CA
:0100000024DB
:010001000EF0
:010002003FBE
:010003001EDE
:010005008179
:010006008178
:010008000FE8
:01000900C036
:01000A000FE6
:01000B00E014
:01000C000FE4
:01000D0040B2
:00000001FF
